{
  "contractName": "TokenSale",
  "abi": [
    {
      "inputs": [
        {
          "internalType": "uint256",
          "name": "_price",
          "type": "uint256"
        },
        {
          "internalType": "address",
          "name": "_addressContract",
          "type": "address"
        }
      ],
      "stateMutability": "nonpayable",
      "type": "constructor"
    },
    {
      "anonymous": false,
      "inputs": [
        {
          "indexed": false,
          "internalType": "address",
          "name": "_buyer",
          "type": "address"
        },
        {
          "indexed": false,
          "internalType": "uint256",
          "name": "_amount",
          "type": "uint256"
        }
      ],
      "name": "Sold",
      "type": "event"
    },
    {
      "inputs": [
        {
          "internalType": "uint256",
          "name": "_numTokens",
          "type": "uint256"
        }
      ],
      "name": "buy",
      "outputs": [],
      "stateMutability": "payable",
      "type": "function",
      "payable": true
    },
    {
      "inputs": [],
      "name": "endSold",
      "outputs": [],
      "stateMutability": "nonpayable",
      "type": "function"
    }
  ],
  "bytecode": "0x608060405234801561001057600080fd5b50604051610c03380380610c03833981810160405281019061003291906100eb565b336000806101000a81548173ffffffffffffffffffffffffffffffffffffffff021916908373ffffffffffffffffffffffffffffffffffffffff1602179055508160018190555080600260006101000a81548173ffffffffffffffffffffffffffffffffffffffff021916908373ffffffffffffffffffffffffffffffffffffffff160217905550505061019a565b6000815190506100d08161016c565b92915050565b6000815190506100e581610183565b92915050565b6000806040838503121561010257610101610167565b5b6000610110858286016100d6565b9250506020610121858286016100c1565b9150509250929050565b60006101368261013d565b9050919050565b600073ffffffffffffffffffffffffffffffffffffffff82169050919050565b6000819050919050565b600080fd5b6101758161012b565b811461018057600080fd5b50565b61018c8161015d565b811461019757600080fd5b50565b610a5a806101a96000396000f3fe6080604052600436106100295760003560e01c806308e6f8dc1461002e578063d96a094a14610045575b600080fd5b34801561003a57600080fd5b50610043610061565b005b61005f600480360381019061005a91906105df565b610284565b005b60008054906101000a900473ffffffffffffffffffffffffffffffffffffffff1673ffffffffffffffffffffffffffffffffffffffff163373ffffffffffffffffffffffffffffffffffffffff16146100b957600080fd5b600260009054906101000a900473ffffffffffffffffffffffffffffffffffffffff1673ffffffffffffffffffffffffffffffffffffffff1663a9059cbb60008054906101000a900473ffffffffffffffffffffffffffffffffffffffff16600260009054906101000a900473ffffffffffffffffffffffffffffffffffffffff1673ffffffffffffffffffffffffffffffffffffffff166370a08231306040518263ffffffff1660e01b81526004016101739190610684565b60206040518083038186803b15801561018b57600080fd5b505afa15801561019f573d6000803e3d6000fd5b505050506040513d601f19601f820116820180604052508101906101c3919061060c565b6040518363ffffffff1660e01b81526004016101e092919061069f565b602060405180830381600087803b1580156101fa57600080fd5b505af115801561020e573d6000803e3d6000fd5b505050506040513d601f19601f8201168201806040525081019061023291906105b2565b61023b57600080fd5b3373ffffffffffffffffffffffffffffffffffffffff166108fc479081150290604051600060405180830381858888f19350505050158015610281573d6000803e3d6000fd5b50565b61029060015482610519565b341461029b57600080fd5b600061035282600260009054906101000a900473ffffffffffffffffffffffffffffffffffffffff1673ffffffffffffffffffffffffffffffffffffffff1663313ce5676040518163ffffffff1660e01b815260040160206040518083038186803b15801561030957600080fd5b505afa15801561031d573d6000803e3d6000fd5b505050506040513d601f19601f820116820180604052508101906103419190610639565b600a61034d91906107a2565b610519565b905080600260009054906101000a900473ffffffffffffffffffffffffffffffffffffffff1673ffffffffffffffffffffffffffffffffffffffff166370a08231306040518263ffffffff1660e01b81526004016103b09190610684565b60206040518083038186803b1580156103c857600080fd5b505afa1580156103dc573d6000803e3d6000fd5b505050506040513d601f19601f82011682018060405250810190610400919061060c565b101561040b57600080fd5b816003600082825461041d91906106c8565b92505081905550600260009054906101000a900473ffffffffffffffffffffffffffffffffffffffff1673ffffffffffffffffffffffffffffffffffffffff1663a9059cbb33836040518363ffffffff1660e01b815260040161048192919061069f565b602060405180830381600087803b15801561049b57600080fd5b505af11580156104af573d6000803e3d6000fd5b505050506040513d601f19601f820116820180604052508101906104d391906105b2565b6104dc57600080fd5b7fae92ab4b6f8f401ead768d3273e6bb937a13e39827d19c6376e8fd4512a05d9a338360405161050d92919061069f565b60405180910390a15050565b60008083141561052c5760009050610558565b6000828461053a91906108c0565b9050828482610549919061071e565b1461055357600080fd5b809150505b92915050565b60008151905061056d816109df565b92915050565b600081359050610582816109f6565b92915050565b600081519050610597816109f6565b92915050565b6000815190506105ac81610a0d565b92915050565b6000602082840312156105c8576105c76109cd565b5b60006105d68482850161055e565b91505092915050565b6000602082840312156105f5576105f46109cd565b5b600061060384828501610573565b91505092915050565b600060208284031215610622576106216109cd565b5b600061063084828501610588565b91505092915050565b60006020828403121561064f5761064e6109cd565b5b600061065d8482850161059d565b91505092915050565b61066f8161091a565b82525050565b61067e81610958565b82525050565b60006020820190506106996000830184610666565b92915050565b60006040820190506106b46000830185610666565b6106c16020830184610675565b9392505050565b60006106d382610958565b91506106de83610958565b9250827fffffffffffffffffffffffffffffffffffffffffffffffffffffffffffffffff038211156107135761071261096f565b5b828201905092915050565b600061072982610958565b915061073483610958565b9250826107445761074361099e565b5b828204905092915050565b6000808291508390505b6001851115610799578086048111156107755761077461096f565b5b60018516156107845780820291505b8081029050610792856109d2565b9450610759565b94509492505050565b60006107ad82610958565b91506107b883610962565b92506107e57fffffffffffffffffffffffffffffffffffffffffffffffffffffffffffffffff84846107ed565b905092915050565b6000826107fd57600190506108b9565b8161080b57600090506108b9565b8160018114610821576002811461082b5761085a565b60019150506108b9565b60ff84111561083d5761083c61096f565b5b8360020a9150848211156108545761085361096f565b5b506108b9565b5060208310610133831016604e8410600b841016171561088f5782820a90508381111561088a5761088961096f565b5b6108b9565b61089c848484600161074f565b925090508184048111156108b3576108b261096f565b5b81810290505b9392505050565b60006108cb82610958565b91506108d683610958565b9250817fffffffffffffffffffffffffffffffffffffffffffffffffffffffffffffffff048311821515161561090f5761090e61096f565b5b828202905092915050565b600061092582610938565b9050919050565b60008115159050919050565b600073ffffffffffffffffffffffffffffffffffffffff82169050919050565b6000819050919050565b600060ff82169050919050565b7f4e487b7100000000000000000000000000000000000000000000000000000000600052601160045260246000fd5b7f4e487b7100000000000000000000000000000000000000000000000000000000600052601260045260246000fd5b600080fd5b60008160011c9050919050565b6109e88161092c565b81146109f357600080fd5b50565b6109ff81610958565b8114610a0a57600080fd5b50565b610a1681610962565b8114610a2157600080fd5b5056fea26469706673582212205a7835addbf136a0e9e8bd62d2bed6ce20fae1d39a6a8793f4b04be561d0ba3564736f6c63430008060033",
  "immutableReferences": {},
  "source": "// SPDX-License-Identifier: MIT\npragma solidity ^0.8.6;\n\ninterface ZimToken {\n    function decimals() external view returns (uint8);\n    function balanceOf(address _address) external view returns (uint256);\n    function transfer(address _to, uint256 _value) external returns (bool success);\n}\n\ncontract TokenSale {\n    address owner;\n    uint256 price;\n    ZimToken zimTokenContract;\n    uint256 tokensSold;\n\n    event Sold(address _buyer, uint256 _amount);\n\n    constructor(uint256 _price, address _addressContract) {\n        owner = msg.sender;\n        price = _price;\n        zimTokenContract = ZimToken(_addressContract);\n    }\n\n    function mul(uint256 a, uint256 b) internal pure returns (uint256) {\n        if (a == 0) {\n            return 0;\n        }\n        uint256 c = a * b;\n        require(c / a == b);\n        return c;\n    }\n\n    function buy(uint256 _numTokens) public payable {\n        require(msg.value == mul(price, _numTokens));\n        uint256 scaledAmount = mul(_numTokens, uint256(10) ** zimTokenContract.decimals());\n        require(zimTokenContract.balanceOf(address(this)) >= scaledAmount);\n        tokensSold += _numTokens;\n        require(zimTokenContract.transfer(msg.sender, scaledAmount));\n        emit Sold(msg.sender, _numTokens);\n    }\n\n    function endSold() public {\n        require(msg.sender == owner);\n        require(zimTokenContract.transfer(owner, zimTokenContract.balanceOf(address(this))));\n        payable(msg.sender).transfer(address(this).balance);\n    }\n}\n",
  "sourcePath": "/home/atix/Documentos/myToken/zimToken/contracts/TokenSale.sol",
  "compiler": {
    "name": "solc",
    "version": "0.8.6+commit.11564f7e.Emscripten.clang"
  },
  "schemaVersion": "3.4.3",
  "updatedAt": "2021-09-02T20:02:04.791Z",
  "networkType": "ethereum",
  "devdoc": {
    "kind": "dev",
    "methods": {},
    "version": 1
  },
  "userdoc": {
    "kind": "user",
    "methods": {},
    "version": 1
  }
}